S01000005344505F323031362E7372656305
S113000000300020CD0A00006D0F0000790F0000C1
S1130010790F0000790F0000790F0000790F0000BC
S1130020790F0000790F0000790F0000790F0000AC
S1130030790F0000790F0000790F0000790F00009C
S1130040790F0000790F0000790F0000790F00008C
S1130050790F0000790F0000790F0000790F00007C
S1130060790F0000790F0000790F0000790F00006C
S113007011160000790F0000790F0000810D0000B7
S1130080790F0000790F0000790F0000790F00004C
S1130090790F0000790F0000A5170000790F000008
S11300A0790F0000790F0000790F0000790F00002C
S11300B0790F0000790F0000790F0000790F00001C
S1130400FFFFFFFFFFFFFFFFFFFFFFFF7EFFFFFF79
S113041010B5064C2378002B07D1054B002B02D0D6
S1130420044800E000BF0123237010BD60F0FF1FEB
S1130430000000005819000008B5084B002B03D039
S11304400748084900E000BF07480368002B03D0B1
S1130450064B002B00D0984708BDC04600000000A2
S11304605819000064F0FF1F60F0FF1F0000000037
S1130470164B002B00D1144B9D46402292029A1A2F
S1130480924600218B460F461348144A121A01F073
S11304904BFA0F4B002B00D098470E4B002B00D08B
S11304A098470020002104000D000D48002802D0C8
S11304B00C4800E000BF01F011FA2000290000F010
S11304C019FA01F0F5F9C0460000080000300020D8
S11304D0000000000000000060F0FF1F18F2FF1F82
S11304E00000000000000000002934D00123002295
S11304F010B488422CD301242407A14204D281429F
S113050002D209011B01F8E7E400A14204D28142AE
S113051002D249005B00F8E7884201D3401A1A432B
S11305204C08A04202D3001B5C0822438C08A04262
S113053002D3001B9C082243CC08A04202D3001B18
S1130540DC082243002803D01B0901D00909E3E792
S1130550101C10BC7047002801D00020C04307B411
S1130560024802A14018029003BDC046D900000011
S11305700029F0D003B5FFF7B9FF0EBC4243891A36
S11305801847C046002941D010B4041C4C40A4466E
S113059001230022002900D54942002800D5404209
S11305A088422CD301242407A14204D2814202D2DE
S11305B009011B01F8E7E400A14204D2814202D2FE
S11305C049005B00F8E7884201D3401A1A434C08FB
S11305D0A04202D3001B5C0822438C08A04202D331
S11305E0001B9C082243CC08A04202D3001BDC0859
S11305F02243002803D01B0901D00909E3E7101C9A
S11306006446002C00D5404210BC7047002806D038
S113061003DB0020C043400801E08020000607B44B
S1130620024802A14018029003BDC0461900000010
S11306300029EBD003B5FFF7A7FF0EBC4243891A8C
S11306401847C0467047C04680B500AFBD4680BD60
S113065080B500AF394B1B68042B6CD89A00384B1B
S1130660D3181B689F46354B00221A60354B1B6814
S1130670002B0ED1344B1B68181C00F0E9FBC0465C
S1130680314B1B68181C00F0C3FB031C002BF7D074
S113069051E02C4B1B68812B0BD12A4B00221A6092
S11306A0264B04221A60294B1B685A1C274B1A60DC
S11306B041E040E0244B5B68181C00F011FC214B26
S11306C01B685A1C1F4B1A601C4B01221A6032E033
S11306D01C4B1B68012B0DD11B4B1B68181C00F015
S11306E0ABFBC046184B1B68181C00F091FB031CA5
S11306F0002BF7D1002000F063FD104B02221A609A
S113070019E0114B5B68181C00F0DEFB0B4B032255
S11307101A6010E00E4B1B68002B05D00C4B1B68B5
S11307205A1C0B4B1A6005E0094B00221A60034B5C
S113073003221A60C046BD4680BDC04600F1FF1FBB
S11307403C190000F8F0FF1FA8F0FF1F04F1FF1F81
S1130750FCF0FF1F80B500AF044B1A68044BD3189C
S1130760181C00F051FDBD4680BDC046F8F0FF1FC7
S11307700CF1FF1F80B500AFBD4680BD80B582B0CF
S113078000AF7860BD4602B080BDC04680B584B07D
S113079000AF78607B68FB60FB6801221A71BD467C
S11307A004B080BD80B500AF054B181C00F08AFD75
S11307B0021C034B1A60024B00221A71BD4680BD15
S11307C07CF0FF1F80B582B000AF021CFB1D1A70C5
S11307D00C4B00221A71C0460A4B1A68FB1D101CF0
S11307E0191C012200F046FE031C002BF4D1C04664
S11307F0044B1B79DBB2002BFAD0181CBD4602B0A7
S113080080BDC0467CF0FF1F80B588B000AF021CDD
S1130810FB1D1A70FB1D1B78181C0A21FFF7A8FE8C
S11308200B1CDAB23B1C1F3330321A70FB1D1B78D1
S1130830181C0A21FFF758FE031CDBB2BB61BB691D
S1130840181C0A21FFF7F4FE0B1CDAB23B1C173309
S113085030321A70BB69181C0A21FFF793FE031C7F
S11308603B613B69181C0A21FFF7E2FE0B1CDAB25C
S11308703B1C0F3330321A703B1C0F331B78181C8F
S1130880FFF7A0FF3B1C17331B78181CFFF79AFFD8
S11308903B1C1F331B78181CFFF794FFBD4608B0A0
S11308A080BDC04680B584B000AF7860FFF77AFFA2
S11308B00023FB600CE0FB687A68D3181B78181CD3
S11308C0FFF7A2FF2020FFF77DFFFB680133FB60E9
S11308D0FB687F2BEFDD0A20FFF774FF0D20FFF785
S11308E071FF034B01221A70BD4604B080BDC0469F
S11308F009F1FF1F80B500AF00F0CCFB0E4B0322C3
S11309001A600E4B00221A600D4BDB68181C00F0B5
S11309108DFFC0460B4B1B680A2BFBD1084BDB68D1
S1130920181C00F09BFF084B181CFFF7BBFF054B7E
S113093000221A60E2E7C04600F1FF1FF8F0FF1F33
S1130940A8F0FF1F04F1FF1F0CF1FF1F80B58AB050
S113095000AFF860B9607A607B687B6204233B6215
S11309600323FB610223BB6101237B6101233B6100
S1130970FA68BB689A4202D07B68002B00D14DE034
S113098049E0BB68FA69134018D1FB68FA6913405F
S113099014D17A6A3B6A9A4210D3FB68BA68126827
S11309A01A60FA683B6AD318FB60BA683B6AD318CA
S11309B0BB607A6A3B6AD31A7B622CE0BB687A69B3
S11309C0134018D1FB687A69134014D17A6ABB6961
S11309D09A4210D3FB68BA6812881A80FA68BB6915
S11309E0D318FB60BA68BB69D318BB607A6ABB6969
S11309F0D31A7B620FE0FB68BA6812781A70FA683F
S1130A003B69D318FB60BA683B69D318BB607A6A48
S1130A103B69D31A7B627B6A002BB2D1BD460AB014
S1130A2080BDC04690B583B000AF234B002B00D1EE
S1130A303EE000237B601DE01F497A68131C5B00C5
S1130A409B189B00CB1858681B497A68131C5B00E1
S1130A509B189B005958184C7A68131C5B009B1810
S1130A609B00E31808331B681A1CFFF76FFF7B68B1
S1130A7001337B6010497A68131C5B009B189B0050
S1130A805B58002BD8D10C497A68131C5B009B1867
S1130A909B00CB185B68002BCED107497A68131CE6
S1130AA05B009B189B00CB1808331B68002BC3D139
S1130AB0BD4603B090BDC046E019000080B500AF4C
S1130AC0BD4680BD80B500AFBD4680BD0A4C201C2C
S1130AD0002805D0854681B00020C043009001B0B5
S1130AE0FFF7ECFF00F04EFAFFF79CFFFFF7EAFF79
S1130AF0FFF7BEFCFEE7C0460030002080B584B09E
S1130B0000AF7860254BFB60FB687A685A60244B21
S1130B10FA681A60FB6800221A70FB6800229A7057
S1130B20204A2049204BCB588021090519431E4BEC
S1130B30D1501E4A1D49C3239B00CB589B009908E2
S1130B40C3239B00D150194B184A12688021090213
S1130B500A431A60164B164A5169164A0A405A61EA
S1130B60154B154AD26810210A43DA60124B6022F1
S1130B709A60114B104AD2680F218A43DA600E4BF7
S1130B8000221A620C4B40225A620C4BFA685A61DA
S1130B90FB68181CBD4604B080BDC04684F0FF1F2E
S1130BA08CF0FF1F007004403C10000000E100E0E6
S1130BB000C00440FFF8FFFE00B00340A8F0FF1F90
S1130BC080B582B000AF78600D4B1A6A8023134061
S1130BD001D0082310E00A4B094A526A48218A438B
S1130BE05A62074B064A126A40218A431A62044B2E
S1130BF07A6852781A600023181CBD4602B080BD82
S1130C0000B0034080B586B000AFF860B960FB1D4A
S1130C101A70FB687B61FB1D1B78012B03D8FB1D3D
S1130C201B78002B01D1962317E00E4B1A6A802300
S1130C30134001D0082310E07B69FA1D12781A7062
S1130C40BB681B78002B01D0822306E04623402298
S1130C501343DAB27B695A700023181CBD4606B0F0
S1130C6080BDC04600B0034080B584B000AF78605A
S1130C7039603B68BB603B1C0F3300221A7014E0E0
S1130C803B1C0F331B78BA68D3180E4A391C0F313A
S1130C900978043189008A58D2B21A703B1C0F3388
S1130CA01A783B1C0F3301321A707B681B783A1C8C
S1130CB00F3212789A42E3D30023181CBD4604B0C5
S1130CC080BDC04600B0034080B584B000AF7860FA
S1130CD02A4B5A6A4023134001D01B234AE0274B76
S1130CE0DB6CFB60254B9B6CFA68D318FB60234BD1
S1130CF05B6CFA68D318FB60204B1B6CFA68D31842
S1130D00FB601E4BDB6BFA68D318FB601B4B9B6BC1
S1130D10FA68D318FB60FB685B0880221202134355
S1130D20FB60164BFA68DA62144BDB6EFB60134B04
S1130D309B6EFA68D318FB60104B5B6EFA68D3188D
S1130D40FB600E4B1B6EFA68D318FB600B4BDB6D1C
S1130D50FA68D318FB60094B9B6DFA68D318FB60E3
S1130D60FB685B08802212021343FB60034BFA68A2
S1130D701A630023181CBD4604B080BD00B00340B4
S1130D8080B582B000AF084B1B687B607B68012292
S1130D909A707B685B68181C00F050FA034B1B695F
S1130DA0BD4602B080BDC0468CF0FF1F00B00340BA
S1130DB080B584B000AF7860104BFB60FB687A6844
S1130DC01A600F4B0E4A526980210A435A610C4B38
S1130DD00B4A126880218A431A600A4B094AD16976
S1130DE0094A0A40802149000A43DA61074BFA683C
S1130DF01A60FB68181CBD4604B080BD90F0FF1F4C
S1130E00C0F00F4000C00440FFF8FFFEA8F0FF1F31
S1130E1080B584B000AF7860064B1A688023134015
S1130E20FB60FB685A1E9341DBB2181CBD4604B03C
S1130E3080BDC046C0F00FF880B582B000AF7860C6
S1130E40024B80229A60BD4602B080BDC0F00FF80C
S1130E5080B582B000AF7860024B80225A60BD46F4
S1130E6002B080BDC0F00FF880B584B000AF7860E8
S1130E70104BFB60FB687A681A600F4B0E4A52698C
S1130E8002210A435A610C4B0B4A126802218A431D
S1130E901A600A4B094A5168094A0A4080214900EC
S1130EA00A435A60074BFA685A60FB68181CBD462F
S1130EB004B080BD94F0FF1F00F10F4000D0044047
S1130EC0FFF8FFFEA8F0FF1F80B582B000AF786086
S1130ED0024B02229A60BD4602B080BD00F10FF8B9
S1130EE080B582B000AF7860024B02225A60BD46E2
S1130EF002B080BD00F10FF880B584B000AF786017
S1130F00104BFB60FB687A681A600F4B0E4A5269FB
S1130F1001210A435A610C4B0B4A126801210A430E
S1130F201A600A4B094A1168094A0A40802149009B
S1130F300A431A60074BFA681A61FB68181CBD461D
S1130F4004B080BD98F0FF1F40F00F4000A00440A3
S1130F50FFF8FFFEA8F0FF1F80B582B000AF7860F5
S1130F60FFF776FBBD4602B080BDC04680B500AF3A
S1130F70FFF76AFBBD4680BD80B500AFFFBEBD462E
S1130F8080BDC04680B500AF364A3749374BD15093
S1130F90374A88235B010021D150354A354BC021A3
S1130FA08902D150324A3249334BCB58D821890176
S1130FB01943314BD150314B9B78DBB21A1C0823B7
S1130FC0134007D02D4B2D4A9278D2B208210A4300
S1130FD0D2B29A70264A274B0021D150244A244980
S1130FE0274BC958274B1940254BD150204B204A39
S1130FF01268C02109030A431A601D4A1C49204B88
S1131000C958214B0B408021490419431C4BD15032
S11310101E4B06221A701D4B00225A701B4B1B4A92
S1131020D278D1B21F220A40D2B2DA70184B802291
S11310301A70164B00221A71144B00225A71C046C2
S1131040124B9B79DBB21A1C10231340F8D0C04614
S11310500E4B9B79DBB21A1C0C231340F8D1BD460E
S113106080BDC04600E000E000000000080D000064
S113107000700440441000003810000000D0074005
S113108004100000FFFFFCFFFFFFFFFC00400640D0
S11310900050064080B500AF304B304A1169304AE9
S11310A00A40E021C9000A431A612E4B2D4A5279A5
S11310B0D2B21F218A43D2B25A712A4B294A1279D9
S11310C0D2B207218A43D2B21A71274B264A127828
S11310D0D2B2D2B273218A43D2B250210A43D2B2DD
S11310E0D2B21A70204B204A5278D2B2D2B26321C3
S11310F08A43D2B240210A43D2B2D2B25A701A4BB6
S1131100194A9278D2B219218A43D2B29A70174BF3
S113111000221A70114B114A116D114A0A40E02144
S1131120C9000A431A65124A1149C1239B00C958D0
S1131130104B1940C1239B00D1500020FFF738FE0B
S11311400020FFF791FE002000F048FB0020FFF78D
S1131150D3FE00F0A1F862B6BD4680BD0090044005
S1131160FFF8FFFE00F0074000D0074000E0074012
S113117000E100E0FFFF3FFF80B500AF0C4B1B78A0
S1131180DBB2002B12D00B4B00221A700A4B002248
S11311901A700A4B1A68084B101C191C0122FFF71D
S11311A031FD064B1B68181CFFF70AFDBD4680BDC8
S11311B09DF0FF1FA4F0FF1FA0F0FF1F14F2FF1FFC
S11311C080B582B000AF021CFB1D1A700D4B1B785A
S11311D0DBB2002B01D008230FE00A4B01221A7066
S11311E0FFF7CAFFFB1D1B78002B05D0C046054B3B
S11311F01B78DBB2012BFAD00023181CBD4602B0C9
S113120080BDC0469DF0FF1F80B582B000AF7860FE
S1131210084B1B78DBB2002B01D1092305E0064BF8
S11312201B78DAB27B681A700023181CBD4602B022
S113123080BDC046A4F0FF1F10F2FF1F80B582B02E
S113124000AF7860104B1B78DBB2042B0AD10F4B34
S11312501B68181CFFF738FD0B4B00221A70FFF7B0
S113126089FA0EE0094B1A68094B101C191CFFF788
S1131270FBFC084B01221A70FFF76CFA024B0022A8
S11312801A70BD4602B080BD9DF0FF1F14F2FF1F0F
S113129010F2FF1FA4F0FF1F80B500AF064B002221
S11312A01A70064B00221A700020FFF727FC021C5C
S11312B0034B1A60BD4680BDA4F0FF1F9DF0FF1FC5
S11312C014F2FF1F80B584B000AF78605E4BFB6002
S11312D0FB6800225A80FB6800221A81FB68002206
S11312E05A60FB6800225A81FB6800221A82FB685C
S11312F00022DA60FB687A685A61544BFA681A6013
S1131300534A5349534BCB588021C9001943514B7D
S1131310D150514B504A5168504A0A4080218900AB
S11313200A435A604C4B4C4A91684C4A0A4080210B
S113133089000A439A604A4A4949C3239B00CB580F
S1131340C021181C8843011CC3239B00D150444B6B
S1131350434A1268802149010A431A60414B414AB9
S1131360D278D2B208218A43D2B2DA703D4B3D4AD8
S1131370D278D2B204218A43D2B2DA70FB68002256
S11313801A80384B00229A70364B00229A71354BE2
S113139000229A72334B00225A712D4A2C49324B47
S11313A0C958324B0B408021C90419432E4BD150EC
S11313B02C4B2C4A1278D2B21F218A43D2B21A7013
S11313C0284B2E225A70274B264A927AD2B2D2B296
S11313D01F218A43D2B203210A43D2B2D2B29A72F3
S11313E0204B204AD27AD2B2D2B202210A43D2B2DC
S11313F0D2B2DA721B4B1B4AD278D2B2D2B20821D3
S11314000A43D2B2D2B2DA70164B164AD278D2B2AA
S1131410D2B204210A43D2B2D2B2DA70114B114AC9
S1131420D278D2B220210A43D2B2DA700D4B0D4ADF
S11314309279D2B29A710E4BFA689A61FB68181CC1
S1131440BD4604B080BDC046C4F0FF1FDCF0FF1FE2
S1131450007004403410000000900440FFF8FFFEC8
S113146000E100E000A0064004100000FFFFFFF3CD
S1131470A8F0FF1F80B586B000AFF860B960BB1D4F
S11314801A80FB687B61BB1D1B88002B01D1842360
S113149048E07B691B8A002B01D0082342E03B1CF7
S11314A01333EFF3108072B61870204B1B78DBB245
S11314B00133DBB21D4A191C1170012B04D13B1CF2
S11314C013331A781A4B1A707B69BA68DA607B692D
S11314D0BA1D12881A827B6900225A817B691B8893
S11314E0012213439AB27B691A80124B114AD278B3
S11314F0D2B2802149420A43D2B2DA700D4B0D4A6E
S11315009279D2B29A71094B1B78DBB2013BDBB200
S1131510064A191C1170002B03D1054B187880F36F
S113152010880023181CBD4606B080BD9CF0FF1F28
S11315300CF2FF1F00A0064090B583B000AF7860A6
S1131540124BDB79DBB21C1C7B681B89002B1AD085
S11315507B685B68591C7A685160E2B21A707B68D8
S11315605B8801339AB27B685A807B685A887B68AF
S11315701B899A4207D17B6800221A817B685B69C8
S1131580181CFFF7FBF8BD4603B090BD00A0064051
S113159080B582B000AF78607B685A897B681B8A0B
S11315A09A421CD219497B68DB68581C7A68D0605F
S11315B01B78CB717B685B8901339AB27B685A8153
S11315C07B685A897B681B8A9A421CD17B680022FB
S11315D01A827B685B69181CFFF7D8F813E00B4B81
S11315E00A4AD278D1B27F220A40D2B2DA70074BCB
S11315F0064A9279D2B29A717B681B88012293437E
S11316009AB27B681A80BD4602B080BD00A0064035
S113161090B583B000AF154B1B687B60144B1B79EE
S1131620DBB21C1C0F23234009D0114B0F221A716B
S11316300F4BDB792023221C9A43131C1C1C2023F0
S1131640234003D07B68181CFFF776FF7B681B8858
S11316501A1C0123134006D08023234003D07B6847
S1131660181CFFF795FFBD4603B090BDDCF0FF1FCB
S113167000A0064080B584B000AF78602A4B9B6818
S1131680002B40D1294BFB60FB687A685A60FB68E9
S113169001221A70264BFA681A60264A2549264BFD
S11316A0CB58802109041943234BD150234B0022EA
S11316B01A60224A84235B000021D1501F4A8623EA
S11316C05B000121D1501D4A80235B00D121D15000
S11316D01B4A1B49C5239B00C9581A4B1940C523F3
S11316E09B00D150164B164A12688021C9030A4345
S11316F01A60124A84235B000221D1500A4BFA6813
S11317009A60FB680CE0084B9B68FB60FB687A6896
S11317105A60FB681B780133DAB2FB681A70FB6805
S1131720181CBD4604B080BDA8F0FF1FE0F0FF1FE9
S1131730E8F0FF1F007004403C10000000700340FC
S113174000E100E0FFFF3FFF80B582B000AF7860AA
S1131750074A074984235B00CB580121194384239A
S11317605B00D1500023181CBD4602B080BDC046AA
S11317700070034080B582B000AF7860084A084921
S113178084235B00CB580121181C8843011C84234B
S11317905B00D1500023181CBD4602B080BDC0467A
S11317A00070034080B582B000AF0A4B1B687B60B9
S11317B0094A86235B000121D150074A80235B003C
S11317C0D3587B685B68181C00F060F8BD4602B013
S11317D080BDC046E8F0FF1F0070034080B584B0B0
S11317E000AF78600F4BFB60FB687A689A60FB6817
S11317F000221A710C4BFA68DA600020FFF73AFFF6
S1131800021CFB681A60FB681B68002B04D1064BA2
S11318100022DA60002300E0FB68181CBD4604B017
S113182080BDC046ECF0FF1FA8F0FF1F80B584B058
S113183000AF78607B68FB60FB681B79002B07D1E5
S1131840FB6801221A71FB681B68181CFFF77CFFF8
S11318500023181CBD4604B080BDC04680B584B0CA
S113186000AF78607B68FB60FB681B79002B07D0B6
S1131870FB6800221A71FB681B68181CFFF77AFFCB
S11318800023181CBD4604B080BDC04680B584B09A
S113189000AF7860054BDB68FB60FB689B68181C35
S11318A0FFF75AFBBD4604B080BDC046A8F0FF1F39
S11318B0084B10B5041C002B02D0002100E000BF2F
S11318C0054B1868836A002B00D09847201C00F051
S11318D033F8C046000000005419000070B50E4BE8
S11318E00E4D0024ED1AAD101E1CAC4204D0A30012
S11318F0F35898470134F8E700F02EF8084B094DE7
S11319000024ED1AAD101E1CAC4204D0A300F35801
S113191098470134F8E770BD781900007819000081
S1131920781900007C190000031C8218934202D02D
S113193019700133FAE77047FEE7C046B4060000A9
S1131940D00600000207000066060000140700002D
S11319504300000000F0FF1FF8B5C046F8BC08BC07
S11319609E467047F8B5C046F8BC08BC9E46704712
S10B197000EBFF7F0100000001
S1071978390400002A
S107197C110400004E
S11319800000000000000000000000000000000053
S11319900000000000000000000000000000000043
S11319A050190000000000000000000000000000CA
S11319B00000000000000000000000000000000023
S11319C00000000000000000000000000000000013
S11319D00000000000000000000000000000000003
S11319E08019000000F0FF1F6000000000000000EC
S10B19F00000000000000000EB
S9030ACD25
