S01000005344505F323031362E7372656305
S113000000300020F5200000112D00001D2D0000FF
S11300101D2D00001D2D00001D2D00001D2D0000B4
S11300201D2D00001D2D00001D2D00001D2D0000A4
S11300301D2D00001D2D00001D2D00001D2D000094
S11300401D2D00001D2D00001D2D00001D2D000084
S11300501D2D00001D2D00001D2D00001D2D000074
S11300601D2D00001D2D00001D2D00001D2D000064
S1130070993400001D2D00001D2D00006126000094
S11300801D2D00001D2D00001D2D00001D2D000044
S11300901D2D00001D2D0000713600001D2D0000D7
S11300A01D2D00001D2D00001D2D00001D2D000024
S11300B01D2D00001D2D00001D2D00001D2D000014
S1130400FFFFFFFFFFFFFFFFFFFFFFFF7EFFFFFF79
S113041010B5064C2378002B07D1054B002B02D0D6
S1130420044800E000BF0123237010BD60F0FF1FEB
S113043000000000EC3A000008B5084B002B03D084
S11304400748084900E000BF07480368002B03D0B1
S1130450064B002B00D0984708BDC04600000000A2
S1130460EC3A000064F0FF1F60F0FF1F0000000082
S1130470164B002B00D1144B9D46402292029A1A2F
S1130480924600218B460F461348144A121A03F071
S1130490D1FA0F4B002B00D098470E4B002B00D005
S11304A098470020002104000D000D48002802D0C8
S11304B00C4800E000BF03F097FA2000290001F087
S11304C027FD03F07BFAC04600000800003000203E
S11304D0000000000000000060F0FF1F50F3FF1F49
S11304E00000000000000000002934D00123002295
S11304F010B488422CD301242407A14204D281429F
S113050002D209011B01F8E7E400A14204D28142AE
S113051002D249005B00F8E7884201D3401A1A432B
S11305204C08A04202D3001B5C0822438C08A04262
S113053002D3001B9C082243CC08A04202D3001B18
S1130540DC082243002803D01B0901D00909E3E792
S1130550101C10BC7047002801D00020C04307B411
S1130560024802A14018029003BDC046D900000011
S11305700029F0D003B5FFF7B9FF0EBC4243891A36
S11305801847C046002941D010B4041C4C40A4466E
S113059001230022002900D54942002800D5404209
S11305A088422CD301242407A14204D2814202D2DE
S11305B009011B01F8E7E400A14204D2814202D2FE
S11305C049005B00F8E7884201D3401A1A434C08FB
S11305D0A04202D3001B5C0822438C08A04202D331
S11305E0001B9C082243CC08A04202D3001BDC0859
S11305F02243002803D01B0901D00909E3E7101C9A
S11306006446002C00D5404210BC7047002806D038
S113061003DB0020C043400801E08020000607B44B
S1130620024802A14018029003BDC0461900000010
S11306300029EBD003B5FFF7A7FF0EBC4243891A8C
S11306401847C0467047C0468446101C62468C4614
S1130650191C634600E0C0461FB500F0D5FC002815
S113066001D40021C8421FBD10B500F005FC404272
S1130670013010BD10B500F0C7FC002801DB0020DC
S113068010BD012010BDC04610B500F0BDFC00280F
S113069001DD002010BD012010BDC04610B500F0E2
S11306A035FC002801DC002010BD012010BDC0462F
S11306B010B500F02BFC002801DA002010BD012049
S11306C010BDC0468446081C6146FFE71FB500F014
S11306D037FB002801D40021C8421FBD10B500F02B
S11306E0BDFA4042013010BD10B500F029FB0028CE
S11306F001DB002010BD012010BDC04610B500F084
S11307001FFB002801DD002010BD012010BDC046E4
S113071010B500F0CDFA002801DC002010BD012046
S113072010BDC04610B500F0C3FA002801DA00205D
S113073010BD012010BDC046F8B543024400C50FEA
S11307404E024800240E2A1C9B09000EC90FB6094C
S11307508D425BD0221A002A00DC89E000281DD1DA
S1130760002E00D075E0580704D00F221A40042A46
S113077000D004338021C90419402A1C00293AD02E
S11307800134FF2C00D17FE09B015B0A5B02E4B2E1
S1130790E405580AD20720431043F8BDFF2CE2D0E9
S11307A08021C9040E431B2A00DD2DE1311C2020C9
S11307B0D140821A9640721E96410E439B1B5801EB
S11307C0D1D59B019F09381C01F00AF8421F9740BC
S11307D094425BDC141B1F231B1B3A1C9F40611CAF
S11307E03B1CCA405F1EBB4113430024BBE7131EDE
S11307F0B9D100230022DB08FF2C04D1002B43D005
S11308008020C00303435B025B0ABFE7211A00296F
S113081040DD002823D0FF2CA5D08020C00406434F
S11308201B2900DDEEE0301C2027C840791A8E40D9
S1130830711E8E4106439B19590100D493E701347C
S1130840FF2C55D0714901221A400B405B08134319
S113085089E7013A002AB1D0FF2CA4D183E7002E06
S113086000D180E701390029E5D0FF2CD8D17AE7FF
S1130870002A1BD1621CD2B2012A4BDD9F1B7A01D4
S113088023D5F71A0D1C9EE700237FE75F4BA41ABC
S11308903B4068E7002946D1611CC8B2012829DD24
S11308A0FF2924D0F3185B080C1C5CE7002C13D040
S11308B0FF2818D08024E404524223431B2A4DDD30
S11308C00123F31A041C0D1C79E7002F00D07AE7EA
S11308D00023002200248EE7002B3BD0D243002AC1
S11308E0EFD0FF28EAD1331CFF240D1C3BE7FF2483
S11308F0002380E7002C5CD1002B00D180E0002E87
S113090000D130E79B19580100D42CE73F4A012459
S1130910134028E7002C15D1002B40D1002E63D0C2
S1130920331C0D1C1FE7002C21D1002B54D0C943CC
S1130930002904D0FF284CD01B2958DD01239B1922
S1130940041C79E7002B19D1002E48D0331C0D1C50
S1130950FF2408E7331C041C0D1C04E71C1C202581
S1130960D440AA1A93405A1E93412343A9E7FF286F
S11309702FD08024E40449422343DDE7FF24002EE2
S113098000D1F0E68022DB08D203134204D0F6083B
S1130990164201D1331C0D1CDB00FF24E3E6002EBC
S11309A000D1E0E69A1B500100D420E7F31A0D1C95
S11309B0D9E6002B0DD0FF24002E00D1D3E68022EF
S11309C0DB08D2031342E7D0F6081642E4D1331C05
S11309D0E2E7331CFF24C6E6331C041CC3E6802371
S11309E000229B04FF2406E7231C002203E71C1CAF
S11309F02027CC40791A8B40591E8B4123439EE714
S1130A00331CB0E6012616E70126D7E6FFFFFFFBFD
S1130A10F0B55F4656464D464446F0B4460245009E
S1130A20C00F85B00F1C760A2D0E804641D0FF2DD5
S1130A3026D08024240400212643F6007F3D8946E5
S1130A408B46F90F7C027800640A000E00918A46F6
S1130A503CD0FF2834D080231B041C430023E40033
S1130A607F380193009F4346019A7B4049469C4648
S1130A7011430F2900D971E0764F89007F58BF4692
S1130A80002E3ED10822022391469B46D9E75A46BE
S1130A90341CC24601920199022937D0032900D19E
S1130AA0CFE0012900D0ABE053460B4000220026E2
S1130AB032E0002E19D10421012289469346C0E771
S1130AC0221C531E9A4102320192CBE7012701975F
S1130AD0002CC7D0201C00F083FE431F9C407623CB
S1130AE05B420021181A0191BCE7301C00F078FE2B
S1130AF07625431F9E406D4200232D1A99469B463E
S1130B009FE70C23032199468B469AE7D446012399
S1130B1067463B40FF2200267602D205700ADB07B7
S1130B201043184305B03CBC90469946A246AB46D8
S1130B30F0BD80260023F603FF22EDE70022002605
S1130B40EAE78020C00306423BD0044239D1061CA8
S1130B5026437602760A009BFF22DDE7281A0390DB
S1130B6076016401A64239D3361B1A2201230120DF
S1130B70311C5B007600002901DBB44201D8361B2E
S1130B800343013A002AF3DC741EA641341C1C43BF
S1130B90039A7F32002A27DD630704D00F23234002
S1130BA0042B00D00434270103D52B4B039A1C409B
S1130BB08032FE2A0BDD012361460B40FF22002612
S1130BC0AAE706437602760A4346FF22A4E7A40175
S1130BD001236746660AD2B23B409DE7039F1B226E
S1130BE0013F03970023C2E77E23039F5B42DB1B85
S1130BF01B2B07DD012361460B40002200268BE7F7
S1130C00D446C5E7221CDA40039B9E339C40231C38
S1130C105C1EA34113435A0704D00F221A40042A2E
S1130C2000D004335F0105D5012361460B40012246
S1130C30002671E79E01624601231340760A0022D2
S1130C406AE78026F60326437602760A5346FF2295
S1130C5062E7C046483A0000FFFFFFF74A0243023A
S1130C6070B55C0A550A43004A001B0EC60F120EEB
S1130C70C90FFF2B05D0FF2A08D0012093420BD0C7
S1130C8070BD0120002CFBD1FF2AF6D10120002DDC
S1130C90F6D101209342F3D1AC42F1D18E4205D07A
S1130CA0002BEDD1201C441EA041E9E70020E7E71A
S1130CB04A024302F0B55C0A550A43004A001B0E7F
S1130CC0C60F120EC90FFF2B31D0FF2A34D0002BD0
S1130CD016D1604260418446002A14D0002820D1F5
S1130CE08E4217D1934215DC04DBAC4212D80020AB
S1130CF0AC4212D2704270414042012318430CE0CE
S1130D00002AEDD194466F426F416046002805D118
S1130D10002FE5D0704201231843F0BD0020002FBE
S1130D20FBD148424841404201231843F5E7002CD7
S1130D30CBD002204042F0E7002DC8D0F9E7C046EE
S1130D404A024302F0B55C0A550A43004A001B0EEE
S1130D50C60F120EC90FFF2B27D0FF2A29D0002B54
S1130D6010D0002A15D194466F426F416046002886
S1130D7015D00020002F04D14842484140420123AD
S1130D801843F0BD604260418446002AECD000283C
S1130D90F2D18E4211D0704201231843F1E7002FA3
S1130DA0F7D0704201231843EBE70220002CE8D16E
S1130DB0D3E70220002DE4D1D1E79342EBDC04DB3E
S1130DC0AC42E8D80020AC42DBD2704270414042D1
S1130DD001231843D5E7C04610B5041E33D000F0F4
S1130DE0FFFC9E231B1A962B09DC083884406402FE
S1130DF0640ADBB26402DB05600A184310BD992B58
S1130E000ADD0522121A211CD1400A1C011C1B31C7
S1130E108C40611E8C411443052801DD421F94401F
S1130E20144A2240610704D00F210C40042C00D046
S1130E30043251010AD59F23181AFF2816D09401B1
S1130E40640AC3B2D6E700230024D3E7D208FF2BF9
S1130E5003D05402640ADBB2CCE7002A06D0802413
S1130E60E40314436402640AFF23C3E7FF2300245A
S1130E70C0E7C046FFFFFFFBF0B55F4656464D4650
S1130E804446F0B40D1C041C8046E80F8146180348
S1130E900F03000B3F0B83B084461B4800974900A7
S1130EA05E00DF0F490D9246760DBB4681420CD0A1
S1130EB01548864210D00120B14215D003B03CBC85
S1130EC090469946A246AB46F0BD009F01202743B9
S1130ED0F4D10D488642EED1604602430120002A37
S1130EE0ECD10120B142E9D1009B6345E6D1D04564
S1130EF0E4D1D94506D00029E0D11C43201C441E6E
S1130F00A041DBE70020D9E7FF070000F0B55F460A
S1130F1056464D464446F0B4CD0FDE0FAC461D0395
S1130F202D0BB146374E0F034C00AB465D00804697
S1130F303F0B640D92466D0DB44232D0314EB54232
S1130F4035D0002C0ED1384341424141081C002DBC
S1130F500BD0002919D1CC452DD065466842012318
S1130F60184318E0002DF6D1281C59460A43534271
S1130F705341002806D1002BEDD06346584201238B
S1130F80184308E00020002B05D14A465042504146
S1130F904042012318433CBC90469946A246AB46C6
S1130FA0F0BD3E1C0643C9D002204042F3E75E4632
S1130FB01643C6D0F8E7AC4207DC0BDA6146484278
S1130FC04841404201231843E5E766467042012345
S1130FD01843E0E75F450AD80ED000205F45DAD217
S1130FE0654668426841404201231843D3E762469C
S1130FF0504201231843CEE7D045F8D80020D0450D
S1131000EED3C8E7FF070000F0B556464D46444608
S11310105F46F0B40D1C83B0041C0190E80F8146B8
S113102018030F03000B3F0B844635480097490013
S11310305E00DF0F490D9246760DB846814234D0EA
S11310402F48864236D0002918D0002E1FD1341CD8
S113105067463A4353425341002C1FD00020002BD3
S113106005D142465042504140420123184303B047
S11310703CBC90469946A246AB46F0BD009804435A
S113108060426041041C002EE2D00028E9D1C14531
S113109015D04F46784201231843E8E7002BF6D0D9
S11310A04B46584201231843E1E7009F022027439F
S11310B0DDD1C5E7674602201743D8D1C3E7B14263
S11310C004DD4A46504201231843D0E7B14207DB0E
S11310D000986045E4D80AD0009F00206745C6D236
S11310E04F4678427841404201231843BFE7019AB2
S11310F05245D5D8019A00205245F1D3B7E7C046EE
S1131100FF070000F0B5564644465F464D46F0B42E
S11311101F1C0B031B0B9A464B0087B0041C804614
S11311205B0DC80F161C02938146002B68D0694BD7
S11311300299994232D08022534652031A43D20074
S1131140630F1A439246644AE0008918804602916C
S1131150002400253B031B0B9B467800FB0F321C2D
S1131160400D039300D175E05A4B984269D0802218
S1131170594652030A43730FD2001A43564B9346FF
S1131180C018F200002303994E4671401C430F2CF3
S113119000D9A9E0514EA4003459A74653461C4334
S11311A000D087E00025AA46A84608240225D1E7F6
S11311B04946022D6CD0032D00D117E2012D00D039
S11311C058E10D40EDB20024A9460023A0460020BA
S11311D0002125030A0D1C052D0B1205404B2A4343
S11311E0134023435B004C465B08E207191C40464E
S11311F0114307B03CBC90469946A246AB46F0BDAD
S11312005346234350D05346002B00D184E150462B
S113121000F0E6FA031E272B00DD76E128210D1AE3
S1131220211C083B5246E9409A400D1C1543221CE0
S11312309A40AA4690462B4B00241B1A0293002581
S113124088E75B461E430323002E9CD1B34600224D
S1131250022398E75B46334321D05846002800D147
S11312604EE100F0BDFA272800DD42E128210F1AE3
S1131270021C311C083A5B46F94093400F1C1F4383
S1131280331C9340BB461A1C164B181A00237AE7EA
S113129001230B4000249946A0460E4B97E70027F4
S11312A0BB46002201236EE7002104248A468846B7
S11312B001254FE70C2403254CE700258024A9468B
S11312C02403A846034B82E7DA46904603991D1C83
S11312D06FE7C046FF07000001FCFFFF883A0000EB
S11312E0FFFF0F800DFCFFFF029F160C38180490BF
S11312F04046070C0004000C1204120C031C534358
S1131300041C3D1C7443554398463B1C73436419A9
S1131310A44644460293230C63449D4204D9029D8F
S1131320802464022D1902951D0C039545462C0456
S11313301B04240C1C1905945C46230C051C5843FF
S11313402404240C8446381C604365435F4381466F
S1131350CC44280C6044BB46814502D980277F02D7
S1131360BB442D04070C2D0C000440195546BC4603
S11313702F04E3448446280C3D0C2F1C5743B846E5
S11313802F1C77434243B94647463F0C9144BA4623
S1131390D14446434A4502D980225202B6184F46E8
S11313A03A0CB6183A0447463F043F0CB8462F1C83
S11313B067435D434443584365190190380C2D1825
S11313C04244B846AC4204D9019880235B02C01859
S11313D00190039C029F201C6044C0196045A441F5
S11313E047466442A4462B043C049946240C4C44CE
S11313F0A046D8448018C246E244904292415746DF
S113140052429146F219E245BF417F424B46BC46E7
S1131410D845BF41D4187F4263461F432D0C7F1922
S1131420B24292414C45AD4152426D421543019E38
S11314307D19AB19E20D5B02059F134342023A4347
S11314409A46531E9A41C30D101C1843640220434C
S113145080465046C0010DD5454601225646049C9F
S11314606B082A401A43F30701341A43760804949C
S11314709046B246049E634FF319002B61DD40464B
S113148040070BD00F2244462240042A06D042468D
S11314900432424580414042824490465546ED0123
S11314A007D5594B5646049F80201E40C000B246C3
S11314B03B18564A934200DDEAE644465546E208A4
S11314C06807104301226C025B050A408046240B26
S11314D05B0D91467BE6DA4690461D1C69E6802446
S11314E02403574627421CD13C432403240B484B76
S11314F06DE6031C283B311C99408B460022C3E651
S1131500301C00F06DF92030ADE6283B211C9940D9
S113151000228A4690468EE6201C00F061F92030B5
S113152078E65846204207D1044303992403240B48
S113153089469046364B4AE63C432403240B344BFD
S113154045E6344B049E9B1B382B06DD01230B40E0
S113155000249946A046002339E61F2B25DC049C71
S11315602D4D46466019524644468640DC40824032
S11315705746301C2243DF40441EA04102433B1C1B
S1131580540709D00F201040042805D0101D9042A4
S1131590924152429B18021C1D021AD501230B4092
S11315A000249946A046012311E61C48049C554694
S11315B0001BC540281C202B16D0194E5746A219D3
S11315C097403A1C43461A43531E9A410243002350
S11315D0D6E758075B02D2081C0B01230B401043CB
S11315E0994680460023F2E50022EBE78024240399
S11315F050460123044319402403240B8946044B19
S1131600E5E5C046FF030000FFFFFFFEFE07000004
S1131610FF07000002FCFFFF1E040000E2FBFFFFC7
S11316203E04000043001B0E5A1C4102D2B270B5A6
S11316304C0AC50F012A17DDE02292006407090B4A
S11316409818002200231E0D221C34050C431B494C
S1131650400540082140014349004908ED070B1C9F
S11316602B43101C191C70BD002B15D1002C1CD051
S1131670201C00F0B5F80A281ADC0B21091A231CD7
S1131680CB40191C031C15339C400D4B0903181A3D
S11316904005090B400DD4E7002C03D06407090B67
S11316A00848CEE707480021CBE700200021C8E71F
S11316B0011C0B398C40211C0024E6E7FFFF0F803E
S11316C089030000FF070000F0B54B000D03420F33
S11316D05B0D6D0A15435A1C5205CC0FC600520D02
S11316E0012A27DD394FDA19FE2A1ADC002A35DDF2
S11316F08001ED00431E98412843760F3043430791
S113170004D00F230340042B00D004308021C904EB
S1131710014027D00132FF2A1DD083015B0AD1B2D8
S113172001E0FF2100235802C905400AE4070843E9
S11317302043F0BD002B06D1354311D100210020F8
S113174043025B0AEFE72E43EBD08020ED008004D8
S11317502843FF22D3E7FF210023E4E717320DDA01
S113176005200022C008D1B2FF2AE9D10028D9D02F
S11317708023DB0303435B025B0AD4E78022144922
S113178012041543C91A1F290DDC124A371C9B1871
S1131790281C9F4098403B1C5A1E93411843CE403E
S11317A030430022ABE70C4F2A1CFF1AFA40171CE7
S11317B0202909D0094A98188540281C3043461E20
S11317C0B041384300229AE70020F7E780FCFFFF8E
S11317D09E03000082FCFFFF7E030000A2FCFFFFCB
S11317E01C2101231B04984201D3000C10391B0A4D
S11317F0984201D3000A08391B09984201D3000911
S1131800043902A2105C40187047C0460403020267
S113181001010101000000000000000080B500AFDC
S1131820074B01221A700020012100F0D5FCC046AC
S1131830034B1B78DBB2002BFAD1BD4680BDC046FA
S1131840A8F1FF1F0000000090B585B000AFFB1C9D
S11318500120191C00F0F2FCFB1C1B78181CFFF77C
S1131860BBFA031C181CFFF7DDFE031C0C1C181C20
S1131870211C724B704AFFF745FC031C0C1C181CFE
S1131880211CFFF721FF031CBB60B868FFF7CAFEE9
S1131890031C0C1C181C211C694A6A4BFFF732FC00
S11318A0031C0C1C181C211CFFF70EFF031C7B607F
S11318B06B4B1B68181C7968FEF73EFF031C181C51
S11318C08021C905FFF7A4F8031C1A1C644B1A6095
S11318D0634B1B68181C6349FEF71AFF031C002B9B
S11318E014D0614BDB6B181C01F0A0F85E4B1B6C31
S11318F0181C01F0F9F85C4B5B6C181C01F052F9F0
S1131900594B9B6C181C01F0ABF98CE0544B1B68D1
S1131910181CFFF787FE031C0C1C181C211C4A4AC8
S11319204A4BFEF7BBFE031C002B14D04E4BDB6B63
S1131930181C01F07BF84C4B1B6C181C01F0D4F8FC
S1131940494B5B6C181C01F02DF9474B9B6C181C20
S113195001F078F967E0424B1B68181CFFF762FE40
S1131960031C0C1C181C211C394A3A4BFEF796FE2A
S1131970031C002B14D03C4BDB6B181C01F056F8F5
S1131980394B1B6C181C01F0AFF8374B5B6C181CFF
S113199001F0FAF8344B9B6C181C01F053F942E047
S11319A02F4B1B68181CFFF73DFE031C0C1C181C56
S11319B0211C294A294BFEF771FE031C002B14D06D
S11319C0294BDB6B181C01F031F8274B1B6C181CDE
S11319D001F07CF8244B5B6C181C01F0D5F8224B09
S11319E09B6C181C01F02EF91DE01F4BDB6B181CBF
S11319F001F02AF81C4B1B6C181C01F083F81A4BDD
S1131A005B6C181C01F0DCF8174B9B6C181C01F084
S1131A1035F90023FB6002E0FB680133FB60FA68E0
S1131A20124B9A42F8DD124B00221A70BD4605B0E3
S1131A3090BDC046C046C046DAE3BA5ECF0C873FCD
S1131A40CDCCCCCCCCCC1640CDCCCCCCCCCC1C404E
S1131A509A99999999991B406666666666661A40D2
S1131A60ACF1FF1F0000F040CCF0FF1F9F86010087
S1131A70A8F1FF1FC046C04680B500AF054B032246
S1131A801A60054B00221A60044B00221A60BD46FE
S1131A9080BDC046C4F1FF1FB4F1FF1FBCF1FF1F9E
S1131AA080B584B000AF7860164B012252421A60B0
S1131AB0154B7A681A600023FB6007E0134AFB6841
S1131AC0D31800221A70FB680133FB60FB687F2B7C
S1131AD0F4DDFFF7D1FF0E4BDB68181C012101F088
S1131AE03BFFC046074B1A68074B1B689A42F9DB59
S1131AF0074BDB68181C002101F02EFF181CBD46A3
S1131B0004B080BDC0F1FF1FB8F1FF1FC8F1FF1F73
S1131B10CCF0FF1F90B583B000AF164B1B68002BB1
S1131B201FDB00237B6019E0134A7B68D3181C7801
S1131B30124A7B68D3181B781A1C114B1B68101CA3
S1131B40191CFEF71FFD031CDBB2E318DAB20A49C5
S1131B507B68CB181A707B6801337B607B687F2BB2
S1131B60E2DD044B1B685A1C024B1A60BD4603B0ED
S1131B7090BDC046C0F1FF1FC8F1FF1F48F2FF1F10
S1131B80B8F1FF1F80B500AFBD4680BD80B500AF82
S1131B90414B1B68042B00D97CE09A003F4BD318BF
S1131BA01B689F463C4B00221A603D4B1B68002B70
S1131BB00ED13C4B1B68181C00F0BAFDC046394BD3
S1131BC01B68181C00F094FD031C002BF7D061E087
S1131BD0334B1B68812B08D1314B00221A602E4BEA
S1131BE004221A60FFF796FF54E053E02D4B5B6824
S1131BF0181C00F059FEC0462A4B5B68181C00F004
S1131C0033FE031C002BF7D0254B1B685A1C244BB6
S1131C101A60214B01221A603CE0214B1B68012B06
S1131C200DD1204B1B68181C00F076FDC0461D4BDF
S1131C301B68181C00F05CFD031C002BF7D100206E
S1131C40002100F0C9FA144B02221A6022E0154B5D
S1131C505B68181C00F01CFEC046124B5B68181C25
S1131C6000F002FE031C002BF7D10B4B03221A6079
S1131C7010E00D4B1B68002B05D00B4B1B685A1C46
S1131C80094B1A6005E0084B00221A60024B03223C
S1131C901A60C046BD4680BDC4F1FF1FC83A0000AB
S1131CA0B4F1FF1FCCF0FF1FBCF1FF1F80B500AFE4
S1131CB0084B1B78DBB2002B08D1074B1A68074B83
S1131CC0D3180020191C00F0B9FA01E0FFF7BCFD9D
S1131CD0BD4680BDA8F1FF1FB4F1FF1F48F2FF1FEE
S1131CE080B584B000AF78607B68FB60FB6801223C
S1131CF01A71BD4604B080BD80B582B000AF002328
S1131D007B600AE0084A7B68D3181A7807497B6825
S1131D10CB181A707B6801337B607B687F2BF1DD05
S1131D20BD4602B080BDC046C8F1FF1FC8F2FF1F08
S1131D3090B585B000AF78600023FB6032E01E4AA6
S1131D40FB68D3181B78181CFFF746F8041C1B4AC1
S1131D50FB68D3181B78DBB2181CFFF73DF8031C93
S1131D60201C191CFEF754FE031CBB60B868FFF767
S1131D7059FC031C0C1C181C211C0E4B0C4AFEF7AE
S1131D8079FC031C002B05D0FB687A68D318002269
S1131D901A7004E0FB687A68D318FF221A70FB6893
S1131DA00133FB60FB687F2BC9DDBD4605B090BDE8
S1131DB0333333333333E33FC8F1FF1FC8F2FF1F1C
S1131DC080B500AF054B181C01F0C4F9021C034B8D
S1131DD01A60024B00221A71BD4680BD7CF0FF1FC1
S1131DE080B582B000AF021CFB1D1A700C4B0022A0
S1131DF01A71C0460A4B1A68FB1D101C191C0122DB
S1131E0001F080FA031C002BF4D1C046044B1B796B
S1131E10DBB2002BFAD0181CBD4602B080BDC04610
S1131E207CF0FF1F80B588B000AF021CFB1D1A7048
S1131E30FB1D1B78181C0A21FEF79AFB0B1CDAB257
S1131E403B1C1F3330321A70FB1D1B78181C0A21EF
S1131E50FEF74AFB031CDBB2BB61BB69181C0A21F9
S1131E60FEF7E6FB0B1CDAB23B1C173330321A7058
S1131E70BB69181C0A21FEF785FB031C3B613B6907
S1131E80181C0A21FEF7D4FB0B1CDAB23B1C0F33DF
S1131E9030321A703B1C0F331B78181CFFF7A0FF5D
S1131EA03B1C17331B78181CFFF79AFF3B1C1F338E
S1131EB01B78181CFFF794FFBD4608B080BDC046D0
S1131EC080B584B000AF7860FFF77AFF0023FB6031
S1131ED00CE0FB687A68D3181B78181CFFF7A2FF84
S1131EE02020FFF77DFFFB680133FB60FB687F2B3D
S1131EF0EFDD0A20FFF774FF0D20FFF771FF034B9E
S1131F0001221A70BD4604B080BDC046B0F1FF1F67
S1131F1080B5A0B000AF00F08FFF154BDB68181C34
S1131F2001F002FD124B9B69181C00F03DFD104BA3
S1131F305B6B181C01F0F6F8C0460D4B9B6B181C2C
S1131F4000F0EAFC031C002BF7D00120FFF7A8FDEA
S1131F50FFF7D2FE0120FFF7A3FD3B1C181CFFF77F
S1131F60E7FE3B1C181CFFF7ABFFFFF757FCF1E73C
S1131F70CCF0FF1F80B58AB000AFF860B9607A601A
S1131F807B687B6204233B620323FB610223BB6106
S1131F9001237B6101233B61FA68BB689A4202D04A
S1131FA07B68002B00D14DE049E0BB68FA6913401F
S1131FB018D1FB68FA69134014D17A6A3B6A9A42D1
S1131FC010D3FB68BA6812681A60FA683B6AD318BF
S1131FD0FB60BA683B6AD318BB607A6A3B6AD31A5F
S1131FE07B622CE0BB687A69134018D1FB687A697C
S1131FF0134014D17A6ABB699A4210D3FB68BA6859
S113200012881A80FA68BB69D318FB60BA68BB6986
S1132010D318BB607A6ABB69D31A7B620FE0FB6892
S1132020BA6812781A70FA683B69D318FB60BA6808
S11320303B69D318BB607A6A3B69D31A7B627B6ABB
S1132040002BB2D1BD460AB080BDC04690B583B066
S113205000AF234B002B00D13EE000237B601DE04A
S11320601F497A68131C5B009B189B00CB185868A7
S11320701B497A68131C5B009B189B005958184C29
S11320807A68131C5B009B189B00E31808331B68D9
S11320901A1CFFF76FFF7B6801337B6010497A6875
S11320A0131C5B009B189B005B58002BD8D10C4978
S11320B07A68131C5B009B189B00CB185B68002B91
S11320C0CED107497A68131C5B009B189B00CB1880
S11320D008331B68002BC3D1BD4603B090BDC04676
S11320E0743B000080B500AFBD4680BD80B500AF35
S11320F0BD4680BD0A4C201C002805D0854681B011
S11321000020C043009001B0FFF7ECFF00F00CFE8C
S1132110FFF79CFFFFF7EAFFFEF7AAF9FEE7C046C8
S11321200030002080B500AF034B00221A70024B30
S113213000225A70BD4680BD4CF3FF1F80B500AF2E
S11321401E4B1B78DBB2002B36D01C4B1B78DBB24A
S1132150032B0BD01A4B00221A701A4B00221A7050
S1132160FFF7E0FF184B00221A7018E0154B1B789C
S1132170DBB2164AD35CDB43DBB2114A1278D2B22B
S11321801340DAB20E4B1A700E4B1B78DBB2104AB6
S11321900021D1540B4B1B78DAB20B4B1A700D4B48
S11321A01A68094B101C191C012200F097F9094BFD
S11321B01B68181C00F070F9BD4680BD85F0FF1F38
S11321C08CF0FF1F84F0FF1F88F0FF1FDC3A000033
S11321D04CF3FF1F48F3FF1F80B582B000AF0A1C09
S11321E0FB1D011C1970BB1D1A70BB1D1B78012B34
S11321F001D902231AE00F4B1B78DBB2002B01D06C
S1132200082313E00B4B03221A700B4BBA1D1278F0
S11322101A70FFF793FFFB1D1B78002B05D0C046F7
S1132220044B1B78DBB2032BFAD00023181CBD46E9
S113223002B080BD85F0FF1F84F0FF1F80B582B01F
S113224000AF021C3960FB1D1A70FB1D1B78012BAB
S113225001D9022314E0FB1D1B780B4AD35C0B4A03
S11322601278D2B21340DBB2002B01D1092307E06C
S1132270FB1D1B78064AD35CDAB23B681A70002354
S1132280181CBD4602B080BDDC3A00008CF0FF1F74
S11322904CF3FF1F80B582B000AF7860344B1B78DD
S11322A0DBB2042B08D1334B1B68181C00F07CF9FB
S11322B02F4B00221A7058E02D4B1B78DBB2032BF6
S11322C036D02C4B1A682C4B1B78DBB2191C2B4BC9
S11322D0CB18101C191C00F037F9274B1B78DBB204
S11322E00133DAB2244B1A70234B1B78DBB2022B76
S11322F00BD1214B00221A70214B03221A70FFF7D5
S1132300D5FC1B4B00221A702FE01B4B1B78DAB252
S11323101C4B1A70174B1A681A4B101C191C0122FB
S113232000F0DCF8134B1B68181C00F0B5F81CE037
S1132330104B1A68104B1B78DBB2191C0F4BCB18CF
S1132340101C191C00F000F90B4B1B78DBB20E4A71
S1132350D25C0B4B1B78DBB21343DAB2084B1A7016
S1132360FFF7A4FC024B00221A70BD4602B080BDE8
S113237085F0FF1F48F3FF1F84F0FF1F4CF3FF1F7E
S11323808CF0FF1F88F0FF1FDC3A000080B500AF1F
S1132390064B00221A70064B00221A70002000F02F
S11323A00BF8021C034B1A60BD4680BD8CF0FF1F66
S11323B085F0FF1F48F3FF1F80B584B000AF78603D
S11323C02B4BFB60FB687A685A602A4BFA681A60E8
S11323D0FB6800221A70FB6800229A70264A26497C
S11323E0264BCB58802109051943244BD150244A4C
S11323F02349C3239B00CB589B009908C3239B000C
S1132400D1501F4B1E4A1268802109020A431A60E8
S11324101C4B1C4A51691C4A0A405A611B4B1B4AFB
S1132420D26810210A43DA60194B194A516F164ACF
S11324300A405A67154B154AD26810210A43DA60DC
S1132440124B61229A60114B104AD2680F218A43C1
S1132450DA600E4B00221A620C4B40225A620D4B7A
S1132460FA681A61FB68181CBD4604B080BDC046FA
S113247090F0FF1F98F0FF1F007004403C10000014
S113248000E100E000C00440FFF8FFFE00B003409C
S113249000D00440CCF0FF1F80B582B000AF78605C
S11324A00D4B1A6A8023134001D0082310E00A4B15
S11324B0094A526A48218A435A62074B064A126AF9
S11324C040218A431A62044B7A6852781A600023C6
S11324D0181CBD4602B080BD00B0034080B586B074
S11324E000AFF860B960FB1D1A70FB687B61FB1DCF
S11324F01B78012B03D8FB1D1B78002B01D19623DD
S11325001AE00F4B1A6A8023134001D0082313E00A
S11325107B69FA1D12781A70BB681B78012B01D9EC
S1132520822309E0BB681B78064AD35C402213432C
S1132530DAB27B695A700023181CBD4606B080BD10
S113254000B00340E03A000080B584B000AF78608A
S113255039603B68BB603B1C0F3300221A7014E0E7
S11325603B1C0F331B78BA68D3180E4A391C0F3141
S11325700978043189008A58D2B21A703B1C0F338F
S11325801A783B1C0F3301321A707B681B783A1C93
S11325900F3212789A42E3D30023181CBD4604B0CC
S11325A080BDC04600B0034080B584B000AF786001
S11325B02A4B5A6A4023134001D01B234AE0274B7D
S11325C0DB6CFB60254B9B6CFA68D318FB60234BD8
S11325D05B6CFA68D318FB60204B1B6CFA68D31849
S11325E0FB601E4BDB6BFA68D318FB601B4B9B6BC9
S11325F0FA68D318FB60FB685B088022120213435D
S1132600FB60164BFA68DA62144BDB6EFB60134B0B
S11326109B6EFA68D318FB60104B5B6EFA68D31894
S1132620FB600E4B1B6EFA68D318FB600B4BDB6D23
S1132630FA68D318FB60094B9B6DFA68D318FB60EA
S1132640FB685B08802212021343FB60034BFA68A9
S11326501A630023181CBD4604B080BD00B00340BB
S113266080B582B000AF084B1B687B607B68012299
S11326709A707B685B68181CFFF70CFE034B1B69A0
S1132680BD4602B080BDC04698F0FF1F00B00340B5
S113269080B584B000AF7860104BFB60FB687A684B
S11326A01A600F4B0E4A526980210A435A610C4B3F
S11326B00B4A126880218A431A600A4B094AD1697D
S11326C0094A0A40802149000A43DA61074BFA6843
S11326D01A60FB68181CBD4604B080BD9CF0FF1F47
S11326E0C0F00F4000C00440FFF8FFFECCF0FF1F15
S11326F080B584B000AF7860064B1A68802313401D
S1132700FB60FB685A1E9341DBB2181CBD4604B043
S113271080BDC046C0F00FF880B582B000AF7860CD
S1132720024B80229A60BD4602B080BDC0F00FF813
S113273080B582B000AF7860024B80225A60BD46FB
S113274002B080BDC0F00FF880B584B000AF7860EF
S1132750104BFB60FB687A681A600F4B0E4A526993
S113276001210A435A610C4B0B4A126801210A43A6
S11327701A600A4B094A1168094A0A408021490033
S11327800A431A60074BFA681A65FB68181CBD46B1
S113279004B080BDA0F0FF1F00F10F4000D0044042
S11327A0FFF8FFFECCF0FF1F80B584B000AF786067
S11327B0104BFB60FB687A681A600F4B0E4A526933
S11327C002210A435A610C4B0B4A126802210A4344
S11327D01A600A4B094A5168094A0A408021490093
S11327E00A435A60074BFA685A65FB68181CBD46D1
S11327F004B080BDA4F0FF1FC0F00F4000C004402F
S1132800FFF8FFFECCF0FF1F80B584B000AF786006
S1132810104BFB60FB687A681A600F4B0E4A5269D2
S113282002210A435A610C4B0B4A126802218A4363
S11328301A600A4B094A5168094A0A408021490032
S11328400A435A60074BFA685A60FB68181CBD4675
S113285004B080BDA8F0FF1F00F10F4000D0044079
S1132860FFF8FFFECCF0FF1F80B584B000AF7860A6
S1132870064B1A6802231340FB60FB685A1E9341FF
S1132880DBB2181CBD4604B080BDC04600F10FF891
S113289080B582B000AF7860024B02229A60BD46D8
S11328A002B080BD00F10FF880B582B000AF78604F
S11328B0024B02225A60BD4602B080BD00F10FF8FF
S11328C080B584B000AF78600D4BFB60FB687A681C
S11328D01A600C4B0B4A51690B4A0A405A610B4B64
S11328E00A4A516C0A4A0A40802149000A435A6440
S11328F0084BFA689A63FB68181CBD4604B080BD97
S1132900ACF0FF1F80F00F40FFFFFDFF00B004405C
S1132910FFF8FFFECCF0FF1F80B584B000AF7860F5
S1132920064B1A6980239B021340FB60FB685A1E06
S11329309341DBB2181CBD4604B080BD80F00FF893
S113294080B584B000AF7860114BFB60FB687A6897
S11329501A60104B0F4A5269802189030A435A6155
S11329600C4B0C4A11680C4A0A401A600B4B0B4A78
S1132970516D0B4A0A40802149000A435A65094BAC
S1132980FA689A61FB68181CBD4604B080BDC04655
S1132990B0F0FF1F00F10F40FFFFDFFF00D0044045
S11329A0FFF8FFFECCF0FF1F80B582B000AF786067
S11329B0034B802292035A60BD4602B080BDC046DC
S11329C000F10FF880B584B000AF7860114BFB6064
S11329D0FB687A681A60104B0F4A5269802109011A
S11329E00A435A610C4B0C4A11680C4A0A401A609B
S11329F00B4B0B4AD16A0B4A0A40802149000A4317
S1132A00DA62094BFA68DA63FB68181CBD4604B045
S1132A1080BDC046B4F0FF1F40F00F40FFF7FFFF3A
S1132A2000A00440FFF8FFFECCF0FF1F80B582B089
S1132A3000AF7860034B802212015A60BD4602B099
S1132A4080BDC04640F00FF880B582B000AF78601A
S1132A50034B80221201DA60BD4602B080BDC0463D
S1132A6040F00FF880B584B000AF7860114BFB6084
S1132A70FB687A681A60104B0F4A52698021C900BA
S1132A800A435A610C4B0C4A11680C4A0A401A60FA
S1132A900B4B0B4A916A0B4A0A40802149000A43B6
S1132AA09A62094BFA681A64FB68181CBD4604B0A4
S1132AB080BDC046B8F0FF1F40F00F40FFFBFFFF92
S1132AC000A00440FFF8FFFECCF0FF1F80B582B0E9
S1132AD000AF7860034B8022D2009A60BD4602B0FA
S1132AE080BDC04640F00FF880B582B000AF78607A
S1132AF0034B8022D2005A60BD4602B080BDC0465E
S1132B0040F00FF880B582B000AF7860034B8022AC
S1132B10D200DA60BD4602B080BDC04640F00FF876
S1132B2080B584B000AF7860114BFB60FB687A68B5
S1132B301A60104B0F4A5269802189000A435A6176
S1132B400C4B0C4A11680C4A0A401A600B4B0B4A96
S1132B50516A0B4A0A40802149000A435A62094BD0
S1132B60FA685A64FB68181CBD4604B080BDC046B0
S1132B70BCF0FF1F40F00F40FFFDFFFF00A004402A
S1132B80FFF8FFFECCF0FF1F80B582B000AF786085
S1132B90034B802292009A60BD4602B080BDC046BD
S1132BA040F00FF880B582B000AF7860034B80220C
S1132BB092005A60BD4602B080BDC04640F00FF896
S1132BC080B582B000AF7860034B80229200DA6057
S1132BD0BD4602B080BDC04640F00FF880B584B059
S1132BE000AF7860114BFB60FB687A681A60104B89
S1132BF00F4A5269802149000A435A610C4B0C4A1E
S1132C0011680C4A0A401A600B4B0B4A116A0B4AB2
S1132C100A40802149000A431A62094BFA689A64FF
S1132C20FB68181CBD4604B080BDC046C0F0FF1F41
S1132C3040F00F40FFFEFFFF00A00440FFF8FFFE3E
S1132C40CCF0FF1F80B582B000AF7860034B8022C8
S1132C5052009A60BD4602B080BDC04640F00FF8F5
S1132C6080B582B000AF7860034B802252005A6076
S1132C70BD4602B080BDC04640F00FF880B582B0BA
S1132C8000AF7860034B80225200DA60BD4602B088
S1132C9080BDC04640F00FF880B584B000AF7860C6
S1132CA0114BFB60FB687A681A60104B0F4A52693B
S1132CB08021C9020A435A610C4B0C4A12688021D4
S1132CC0C9020A431A600A4B094A916C094A0A402C
S1132CD0802149000A439A64074BFA68DA64FB6866
S1132CE0181CBD4604B080BDC4F0FF1F40F00F4067
S1132CF000A00440FFF8FFFECCF0FF1F80B582B0B7
S1132D0000AF7860FEF742FFBD4602B080BDC0460A
S1132D1080B500AFFEF736FFBD4680BD80B500AF7D
S1132D20FFBEBD4680BDC04680B500AF364A3749B8
S1132D30374BD150374A88235B010021D150354AA3
S1132D40354BC0218902D150324A3249334BCB58DA
S1132D50F82189011943314BD150314B9B78DBB2B7
S1132D601A1C0823134007D02D4B2D4A9278D2B257
S1132D7008210A43D2B29A70264A274B0021D15027
S1132D80244A2449274BC958274B1940254BD15075
S1132D90204B204A1268C02109030A431A601D4AC5
S1132DA01C49204BC958214B0B408021490419432D
S1132DB01C4BD1501E4B06221A701D4B00225A7018
S1132DC01B4B1B4AD278D1B21F220A40D2B2DA700E
S1132DD0184B80221A70164B00221A71144B0022D1
S1132DE05A71C046124B9B79DBB21A1C1023134054
S1132DF0F8D0C0460E4B9B79DBB21A1C0C2313404F
S1132E00F8D1BD4680BDC04600E000E000000000EF
S1132E10080D000000700440441000003810000049
S1132E2000D0074004100000FFFFFCFFFFFFFFFC81
S1132E30004006400050064080B500AF444B444A71
S1132E401169444A0A40E021C9000A431A61424B0D
S1132E50414A5279D2B21F218A43D2B25A713E4BAF
S1132E603D4A1279D2B207218A43D2B21A713B4B3E
S1132E703A4A1278D2B2D2B273218A43D2B25021E2
S1132E800A43D2B2D2B21A70344B344A5278D2B214
S1132E90D2B263218A43D2B240210A43D2B2D2B21F
S1132EA05A702E4B2D4A9278D2B219218A43D2B24B
S1132EB09A702B4B00221A70254B254A116D254A16
S1132EC00A40E021C9000A431A65264A2549C1235C
S1132ED09B00C958244B1940C1239B00D1500020AA
S1132EE0FFF7D6FB0020FFF78FFC002000F0F4FC76
S1132EF0FFF74CFA0020FFF723FD002000F036F81E
S1132F00002000F05FF8002000F088F8002000F0B6
S1132F10B1F8002000F0DAF80020FFF7D1FC00201F
S1132F20FFF750FD0020FFF79DFD0020FFF7F8FD9F
S1132F300020FFF753FE0020FFF7AEFE0020FFF74E
S1132F4003FC0020FFF730FC62B6BD4680BDC046DE
S1132F5000900440FFF8FFFE00F0074000D0074057
S1132F6000E0074000E100E0FFFF3FFF80B584B0D0
S1132F7000AF7860114BFB60FB687A689A60FB686D
S1132F8001221A71FB6801225242DA800C4BFA6862
S1132F901A62002000F088FB021CFB681A60FB68C0
S1132FA01B68002B04D1064B00221A62002300E0A8
S1132FB0FB68181CBD4604B080BDC04624F1FF1F49
S1132FC0CCF0FF1F80B584B000AF7860114BFB607C
S1132FD0FB687A689A60FB6801221A71FB68012217
S1132FE05242DA800C4BFA685A62002000F05CFB13
S1132FF0021CFB681A60FB681B68002B04D1064B9B
S113300000225A62002300E0FB68181CBD4604B08D
S113301080BDC04630F1FF1FCCF0FF1F80B584B0E7
S113302000AF7860114BFB60FB687A689A60FB68BC
S113303001221A71FB6801225242DA800C4BFA68B1
S11330409A62002000F030FB021CFB681A60FB68E7
S11330501B68002B04D1064B00229A62002300E077
S1133060FB68181CBD4604B080BDC0463CF1FF1F80
S1133070CCF0FF1F80B584B000AF7860114BFB60CB
S1133080FB687A689A60FB6801221A71FB68012266
S11330905242DA800C4BFA68DA62002000F004FB3A
S11330A0021CFB681A60FB681B68002B04D1064BEA
S11330B00022DA62002300E0FB68181CBD4604B05D
S11330C080BDC04648F1FF1FCCF0FF1F80B584B01F
S11330D000AF7860104BFB60FB687A689A60FB680D
S11330E000221A71FB680D4ADA800D4BFA685A63A4
S11330F0002000F073FB021CFB681A60FB681B686D
S1133100002B04D1064B00225A63002300E0FB6825
S1133110181CBD4604B080BD54F1FF1F6FEDFFFFC6
S1133120CCF0FF1F80B584B000AF78607B68FB6093
S1133130FB681B79002B07D1FB6801221A71FB681D
S11331401B68181C00F0B0FB0023181CBD4604B01B
S113315080BDC04680B584B000AF78605E4BFB6034
S1133160FB6800225A80FB6800221A81FB68002257
S11331705A60FB6800225A81FB6800221A82FB68AD
S11331800022DA60FB687A685A61544BFA681A6064
S1133190534A5349534BCB588021C9001943514BCF
S11331A0D150514B504A5168504A0A4080218900FD
S11331B00A435A604C4B4C4A91684C4A0A4080215D
S11331C089000A439A604A4A4949C3239B00CB5861
S11331D0C021181C8843011CC3239B00D150444BBD
S11331E0434A1268802149010A431A60414B414A0B
S11331F0D278D2B208218A43D2B2DA703D4B3D4A2A
S1133200D278D2B204218A43D2B2DA70FB680022A7
S11332101A80384B00229A70364B00229A71354B33
S113322000229A72334B00225A712D4A2C49324B98
S1133230C958324B0B408021C90419432E4BD1503D
S11332402C4B2C4A1278D2B21F218A43D2B21A7064
S1133250284B2E225A70274B264A927AD2B2D2B2E7
S11332601F218A43D2B203210A43D2B2D2B29A7244
S1133270204B204AD27AD2B2D2B202210A43D2B22D
S1133280D2B2DA721B4B1B4AD278D2B2D2B2082124
S11332900A43D2B2D2B2DA70164B164AD278D2B2FC
S11332A0D2B204210A43D2B2D2B2DA70114B114A1B
S11332B0D278D2B220210A43D2B2DA700D4B0D4A31
S11332C09279D2B29A710E4BFA685A61FB68181C53
S11332D0BD4604B080BDC04660F1FF1F78F1FF1FFA
S11332E0007004403410000000900440FFF8FFFE1A
S11332F000E100E000A0064004100000FFFFFFF31F
S1133300CCF0FF1F80B586B000AFF860B960BB1D7C
S11333101A80FB687B61BB1D1B88002B01D18423B1
S113332048E07B691B8A002B01D0082342E03B1C48
S11333301333EFF3108072B61870204B1B78DBB296
S11333400133DBB21D4A191C1170012B04D13B1C43
S113335013331A781A4B1A707B69BA68DA607B697E
S1133360BA1D12881A827B6900225A817B691B88E4
S1133370012213439AB27B691A80124B114AD27804
S1133380D2B2802149420A43D2B2DA700D4B0D4ABF
S11333909279D2B29A71094B1B78DBB2013BDBB252
S11333A0064A191C1170002B03D1054B187880F3C1
S11333B010880023181CBD4606B080BDC8F0FF1F4E
S11333C04EF3FF1F00A0064090B583B000AF7860B5
S11333D0104BDB79DBB21C1C7B681B89002B15D0DE
S11333E07B685B68591C7A685160E2B21A707B682A
S11333F05B8801339AB27B685A807B685A887B6801
S11334001B899A4202D17B6800221A81BD4603B00F
S113341090BDC04600A0064080B582B000AF786081
S11334207B685A897B681B8A9A421CD219497B683B
S1133430DB68581C7A68D0601B78CB717B685B8929
S113344001339AB27B685A817B685A897B681B8AEC
S11334509A421CD17B6800221A827B685B69181C23
S1133460FEF73EFC13E00B4B0A4AD278D1B27F221E
S11334700A40D2B2DA70074B064A9279D2B29A71F4
S11334807B681B88012293439AB27B681A80BD46ED
S113349002B080BD00A0064090B583B000AF154BCC
S11334A01B687B60144B1B79DBB21C1C0F2323406D
S11334B009D0114B0F221A710F4BDB792023221CE8
S11334C09A43131C1C1C2023234003D07B68181C24
S11334D0FFF77AFF7B681B881A1C0123134006D070
S11334E08023234003D07B68181CFFF795FFBD465B
S11334F003B090BD78F1FF1F00A0064080B584B0F2
S113350000AF78602A4B9B68002B40D1294BFB60AD
S1133510FB687A685A60FB6801221A70264BFA68C5
S11335201A60264A2549264BCB58802109041943A1
S1133530234BD150234B00221A60224A84235B0080
S11335400021D1501F4A86235B000121D1501D4A1E
S113355080235B00D121D1501B4A1B49C5239B000A
S1133560C9581A4B1940C5239B00D150164B164A13
S113357012688021C9030A431A60124A84235B003B
S11335800021D1500A4BFA689A60FB680CE0084BA2
S11335909B68FB60FB687A685A60FB681B780133A0
S11335A0DAB2FB681A70FB68181CBD4604B080BD13
S11335B0CCF0FF1F7CF1FF1F84F1FF1F007004405B
S11335C03C1000000070034000E100E0FFFF3FFFFB
S11335D080B582B000AF7860074A074984235B0056
S11335E0CB580121194384235B00D1500023181CBC
S11335F0BD4602B080BDC0460070034080B582B0B5
S113360000AF786039603A68174B134001D08023CB
S113361025E03A6880235B00134013D0134A8623C5
S11336205B000121D150114A80235B00D3580F4A1B
S11336300E4984235B00CB580221194384235B0089
S1133640D1500BE0094A094984235B00CB5802217D
S1133650181C8843011C84235B00D1500023181CD0
S1133660BD4602B080BDC046FFFEFFFF00700340B0
S113367080B582B000AF0A4B1B687B60094A862381
S11336805B000121D150074A80235B00D3587B683B
S11336905B68181C00F080F9BD4602B080BDC046CE
S11336A084F1FF1F0070034080B584B000AF7860E0
S11336B0424BDB69002B6FD1414BFB60FB687A689E
S11336C05A60FB6801221A703E4A3E493E4BCB5871
S11336D08021490419433C4BD1503C4B00221A60D1
S11336E03A4B00225A60394B0022DA60374B0022F1
S11336F05A61364B0022DA61344B00225A62334B52
S11337000022DA62314B00225A63304B304A9A600D
S11337102E4B2C22DA612D4B2D4A1A622B4B2C2274
S11337205A622A4B2A4A9A62284B2C22DA60274B87
S1133730274A1A61254B2C225A61244B244A9A6148
S1133740244B244AD168244A0A408021C9000A43F0
S1133750DA60204B1F4A11691F4A0A408021C900C0
S11337600A431A611B4B1B4A51681B4A0A408021B9
S1133770C9000A435A60174B164A9168164A0A4010
S11337808021C9000A439A60104B0B221A600B4B2C
S1133790FA68DA61FB680CE0084BDB69FB60FB68E4
S11337A07A685A60FB681B780133DAB2FB681A70D6
S11337B0FB68181CBD4604B080BDC046CCF0FF1F9A
S11337C088F1FF1F007004403C100000008003409B
S11337D0FFFF000000B00440FFF8FFFE80B584B096
S11337E000AF7860274B1B6B002B39D1264BFB6055
S11337F0FB687A689A60FB6801221A71234A23499C
S1133800234BCB58802189041943214BD150214BA0
S113381000221A601F4B00225A601E4B0022DA60FD
S11338201C4B00225A611B4B1B4A9A60194B2C22D9
S1133830DA60184B194A1A61194B194A1168194A66
S11338400A40C02189000A431A60FB6808221A60F2
S1133850104B03221A600B4BFA681A63FB680CE0E6
S1133860084B1B6BFB60FB687A689A60FB681B79EA
S11338700133DAB2FB681A71FB68181CBD4604B048
S113388080BDC046CCF0FF1F90F1FF1F00700440C4
S11338903C10000000900340CCCC0000F4BD0000BC
S11338A000A00440FFF8FFFE80B584B000AF78604C
S11338B07B68FB60074B074A12689821101C8843F9
S11338C0011CFA6812680A431A600023181CBD46DA
S11338D004B080BD0090034080B584B000AF786030
S11338E00F4BFB60FB687A689A60FB6800221A71D0
S11338F00C4BFA68DA600020FFF700FE021CFB683C
S11339001A60FB681B68002B04D1064B0022DA60A6
S1133910002300E0FB68181CBD4604B080BDC0460F
S11339209CF1FF1FCCF0FF1F80B584B000AF78601E
S11339307B68FB60FB681B79002B07D1FB680122C5
S11339401A71FB681B68181CFFF742FE0023181C41
S1133950BD4604B080BDC04680B584B000AF786079
S113396039607B68FB603B680122934301D080236C
S11339700EE0FB681A68396801230B4002D08023EB
S11339805B0000E00023101C191CFFF737FE031C2A
S1133990181CBD4604B080BD80B584B000AF78600B
S11339A0054BDB68FB60FB689B68181CFFF7A6F9F6
S11339B0BD4604B080BDC046CCF0FF1F084B10B517
S11339C0041C002B02D0002100E000BF054B186846
S11339D0836A002B00D09847201C00F033F8C046BF
S11339E000000000E83A000070B50E4B0E4D0024B4
S11339F0ED1AAD101E1CAC4204D0A300F358984736
S1133A000134F8E700F072F8084B094D0024ED1A70
S1133A10AD101E1CAC4204D0A300F35898470134E7
S1133A20F8E770BD0C3B00000C3B00000C3B0000B1
S1133A30103B0000031C8218934202D0197001331A
S1133A40FAE77047FEE7C0465C0B00000E0B00006F
S1133A503C0B0000960A00003C0B0000320B0000F7
S1133A603C0B0000960A00000E0B00000E0B000039
S1133A70320B0000960A00008E0A00008E0A000035
S1133A808E0A0000420B0000E8120000D614000069
S1133A90D6140000C8120000B2110000B2110000D8
S1133AA0BA120000C8120000B2110000BA120000DD
S1133AB0B2110000C8120000B0110000B0110000E3
S1133AC0B0110000DE140000EC1B00001A1C000002
S1133AD04E1C0000A41B0000721C00000102000028
S1133AE0464400004300000000F0FF1FF8B5C04644
S1133AF0F8BC08BC9E467047F8B5C046F8BC08BC84
S1073B009E46704722
S10B3B046CC9FF7F0100000001
S1073B0C3904000074
S1073B101104000098
S1133B14000000000000000000000000000000009D
S1133B24000000000000000000000000000000008D
S1133B34E43A00000000000000000000000000005F
S1133B44000000000000000000000000000000006D
S1133B54000000000000000000000000000000005D
S1133B64000000000000000000000000000000004D
S1133B74143B000000F0FF1F600000000000000080
S10B3B84000000000000000035
S90320F5E7
